{
  "contractName": "Carrier",
  "abi": [
    {
      "constant": true,
      "inputs": [],
      "name": "us_dot_number",
      "outputs": [
        {
          "name": "",
          "type": "bytes32"
        }
      ],
      "payable": false,
      "stateMutability": "view",
      "type": "function"
    },
    {
      "constant": true,
      "inputs": [],
      "name": "owner",
      "outputs": [
        {
          "name": "",
          "type": "address"
        }
      ],
      "payable": false,
      "stateMutability": "view",
      "type": "function"
    },
    {
      "constant": true,
      "inputs": [],
      "name": "dot_information",
      "outputs": [
        {
          "name": "",
          "type": "address"
        }
      ],
      "payable": false,
      "stateMutability": "view",
      "type": "function"
    },
    {
      "constant": true,
      "inputs": [
        {
          "name": "",
          "type": "uint256"
        }
      ],
      "name": "contacts",
      "outputs": [
        {
          "name": "",
          "type": "address"
        }
      ],
      "payable": false,
      "stateMutability": "view",
      "type": "function"
    },
    {
      "inputs": [],
      "payable": false,
      "stateMutability": "nonpayable",
      "type": "constructor"
    },
    {
      "constant": false,
      "inputs": [
        {
          "name": "_firstName",
          "type": "bytes32"
        },
        {
          "name": "_lastName",
          "type": "bytes32"
        },
        {
          "name": "_jobTitle",
          "type": "bytes32"
        },
        {
          "name": "_contactType",
          "type": "bytes32"
        },
        {
          "name": "_phone",
          "type": "bytes32"
        },
        {
          "name": "_mobilePhone",
          "type": "bytes32"
        },
        {
          "name": "_fax",
          "type": "bytes32"
        },
        {
          "name": "_email",
          "type": "bytes32"
        }
      ],
      "name": "addContact",
      "outputs": [],
      "payable": false,
      "stateMutability": "nonpayable",
      "type": "function"
    },
    {
      "constant": true,
      "inputs": [],
      "name": "getContacts",
      "outputs": [
        {
          "name": "",
          "type": "address[]"
        }
      ],
      "payable": false,
      "stateMutability": "view",
      "type": "function"
    }
  ],
  "bytecode": "0x6060604052341561000f57600080fd5b336000806101000a81548173ffffffffffffffffffffffffffffffffffffffff021916908373ffffffffffffffffffffffffffffffffffffffff1602179055506109708061005e6000396000f300606060405260043610610078576000357c0100000000000000000000000000000000000000000000000000000000900463ffffffff1680633e8ee1ac1461007d5780638a6bc6ff146100ae5780638da5cb5b14610130578063db920b7714610185578063dcca8fc5146101ef578063e0f478cb14610244575b600080fd5b341561008857600080fd5b6100906102a7565b60405180826000191660001916815260200191505060405180910390f35b34156100b957600080fd5b61012e600480803560001916906020019091908035600019169060200190919080356000191690602001909190803560001916906020019091908035600019169060200190919080356000191690602001909190803560001916906020019091908035600019169060200190919050506102ad565b005b341561013b57600080fd5b61014361041b565b604051808273ffffffffffffffffffffffffffffffffffffffff1673ffffffffffffffffffffffffffffffffffffffff16815260200191505060405180910390f35b341561019057600080fd5b610198610440565b6040518080602001828103825283818151815260200191508051906020019060200280838360005b838110156101db5780820151818401526020810190506101c0565b505050509050019250505060405180910390f35b34156101fa57600080fd5b6102026104d4565b604051808273ffffffffffffffffffffffffffffffffffffffff1673ffffffffffffffffffffffffffffffffffffffff16815260200191505060405180910390f35b341561024f57600080fd5b61026560048080359060200190919050506104fa565b604051808273ffffffffffffffffffffffffffffffffffffffff1673ffffffffffffffffffffffffffffffffffffffff16815260200191505060405180910390f35b60015481565b60008060009054906101000a900473ffffffffffffffffffffffffffffffffffffffff1673ffffffffffffffffffffffffffffffffffffffff163373ffffffffffffffffffffffffffffffffffffffff1614151561030a57600080fd5b888888888888888861031a610539565b808960001916600019168152602001886000191660001916815260200187600019166000191681526020018660001916600019168152602001856000191660001916815260200184600019166000191681526020018360001916600019168152602001826000191660001916815260200198505050505050505050604051809103906000f08015156103ab57600080fd5b9050600280548060010182816103c19190610549565b9160005260206000209001600083909190916101000a81548173ffffffffffffffffffffffffffffffffffffffff021916908373ffffffffffffffffffffffffffffffffffffffff16021790555050505050505050505050565b6000809054906101000a900473ffffffffffffffffffffffffffffffffffffffff1681565b610448610575565b60028054806020026020016040519081016040528092919081815260200182805480156104ca57602002820191906000526020600020905b8160009054906101000a900473ffffffffffffffffffffffffffffffffffffffff1673ffffffffffffffffffffffffffffffffffffffff1681526020019060010190808311610480575b5050505050905090565b600360009054906101000a900473ffffffffffffffffffffffffffffffffffffffff1681565b60028181548110151561050957fe5b90600052602060002090016000915054906101000a900473ffffffffffffffffffffffffffffffffffffffff1681565b604051610396806105af83390190565b8154818355818115116105705781836000526020600020918201910161056f9190610589565b5b505050565b602060405190810160405280600081525090565b6105ab91905b808211156105a757600081600090555060010161058f565b5090565b9056006060604052341561000f57600080fd5b60405161010080610396833981016040528080519060200190919080519060200190919080519060200190919080519060200190919080519060200190919080519060200190919080519060200190919080519060200190919050508760008160001916905550866001816000191690555085600281600019169055508460038160001916905550836004816000191690555082600581600019169055508160068160001916905550806007816000191690555050505050505050506102bc806100da6000396000f300606060405260043610610099576000357c0100000000000000000000000000000000000000000000000000000000900463ffffffff1680633ff4b9381461009e5780634589fe0c146100cf5780635d3270b414610100578063820e93f5146101315780639284f49714610162578063932997f11461019357806396f2fa8b146101c45780639ab03dcb146101f5578063ef690ad414610226575b600080fd5b34156100a957600080fd5b6100b1610257565b60405180826000191660001916815260200191505060405180910390f35b34156100da57600080fd5b6100e261025d565b60405180826000191660001916815260200191505060405180910390f35b341561010b57600080fd5b610113610263565b60405180826000191660001916815260200191505060405180910390f35b341561013c57600080fd5b610144610269565b60405180826000191660001916815260200191505060405180910390f35b341561016d57600080fd5b61017561026f565b60405180826000191660001916815260200191505060405180910390f35b341561019e57600080fd5b6101a6610275565b60405180826000191660001916815260200191505060405180910390f35b34156101cf57600080fd5b6101d761027e565b60405180826000191660001916815260200191505060405180910390f35b341561020057600080fd5b610208610284565b60405180826000191660001916815260200191505060405180910390f35b341561023157600080fd5b61023961028a565b60405180826000191660001916815260200191505060405180910390f35b60025481565b60005481565b60035481565b60075481565b60045481565b60008054905090565b60055481565b60015481565b600654815600a165627a7a723058205fb18404bd7c266b14b1fa65412b73300bea6ca0bf2369e606a99e016a7dd6db0029a165627a7a723058205a0a4518c454373ff2064a6c2dd17f5453540fc8f27187a05efca3d606ce22ea0029",
  "source": "pragma solidity ^0.4.17;\nimport \"./CarrierContact.sol\";\nimport \"./CarrierDotInfo.sol\";\n\ncontract Carrier {\n\n    address public owner;\n    bytes32 public us_dot_number;\n    CarrierContact[] public contacts;\n    CarrierDotInfo public dot_information;\n\n    function Carrier() public {\n        owner = msg.sender;\n    }\n\n    function addContact(\n        bytes32 _firstName,\n        bytes32 _lastName,\n        bytes32 _jobTitle,\n        bytes32 _contactType,\n        bytes32 _phone,\n        bytes32 _mobilePhone,\n        bytes32 _fax,\n        bytes32 _email\n    ) public\n    {\n        require(msg.sender == owner);\n        CarrierContact contact = new CarrierContact(\n            _firstName,\n            _lastName,\n            _jobTitle,\n            _contactType,\n            _phone,\n            _mobilePhone,\n            _fax,\n            _email\n        );\n        contacts.push(contact);\n    }\n\n\n\n    function getContacts() public view returns (CarrierContact[]) {\n        return contacts;\n    }\n\n}",
  "sourcePath": "/Users/tejnakk/Documents/JbHackathon2018/hackathon-blockchain/contracts/Carrier.sol",
  "compiler": {
    "name": "solc",
    "version": "0.4.19+commit.c4cbbb05.Emscripten.clang"
  },
  "schemaVersion": "2.0.0",
  "updatedAt": "2018-03-07T19:00:56.311Z"
}