{
  "contractName": "CarrierContact",
  "abi": [
    {
      "constant": true,
      "inputs": [],
      "name": "managingContract",
      "outputs": [
        {
          "name": "",
          "type": "address"
        }
      ],
      "payable": false,
      "stateMutability": "view",
      "type": "function"
    },
    {
      "constant": true,
      "inputs": [],
      "name": "jobTitle",
      "outputs": [
        {
          "name": "",
          "type": "bytes32"
        }
      ],
      "payable": false,
      "stateMutability": "view",
      "type": "function"
    },
    {
      "constant": true,
      "inputs": [],
      "name": "firstName",
      "outputs": [
        {
          "name": "",
          "type": "bytes32"
        }
      ],
      "payable": false,
      "stateMutability": "view",
      "type": "function"
    },
    {
      "constant": true,
      "inputs": [],
      "name": "contactType",
      "outputs": [
        {
          "name": "",
          "type": "bytes32"
        }
      ],
      "payable": false,
      "stateMutability": "view",
      "type": "function"
    },
    {
      "constant": true,
      "inputs": [],
      "name": "email",
      "outputs": [
        {
          "name": "",
          "type": "bytes32"
        }
      ],
      "payable": false,
      "stateMutability": "view",
      "type": "function"
    },
    {
      "constant": true,
      "inputs": [],
      "name": "phone",
      "outputs": [
        {
          "name": "",
          "type": "bytes32"
        }
      ],
      "payable": false,
      "stateMutability": "view",
      "type": "function"
    },
    {
      "constant": true,
      "inputs": [],
      "name": "mobilePhone",
      "outputs": [
        {
          "name": "",
          "type": "bytes32"
        }
      ],
      "payable": false,
      "stateMutability": "view",
      "type": "function"
    },
    {
      "constant": true,
      "inputs": [],
      "name": "lastName",
      "outputs": [
        {
          "name": "",
          "type": "bytes32"
        }
      ],
      "payable": false,
      "stateMutability": "view",
      "type": "function"
    },
    {
      "constant": true,
      "inputs": [],
      "name": "fax",
      "outputs": [
        {
          "name": "",
          "type": "bytes32"
        }
      ],
      "payable": false,
      "stateMutability": "view",
      "type": "function"
    },
    {
      "inputs": [],
      "payable": false,
      "stateMutability": "nonpayable",
      "type": "constructor"
    },
    {
      "constant": false,
      "inputs": [
        {
          "name": "_val",
          "type": "bytes32"
        }
      ],
      "name": "set_firstName",
      "outputs": [],
      "payable": false,
      "stateMutability": "nonpayable",
      "type": "function"
    },
    {
      "constant": true,
      "inputs": [],
      "name": "get_firstName",
      "outputs": [
        {
          "name": "",
          "type": "bytes32"
        }
      ],
      "payable": false,
      "stateMutability": "view",
      "type": "function"
    },
    {
      "constant": true,
      "inputs": [],
      "name": "getLastName",
      "outputs": [
        {
          "name": "",
          "type": "bytes32"
        }
      ],
      "payable": false,
      "stateMutability": "view",
      "type": "function"
    },
    {
      "constant": true,
      "inputs": [],
      "name": "getJobTitle",
      "outputs": [
        {
          "name": "",
          "type": "bytes32"
        }
      ],
      "payable": false,
      "stateMutability": "view",
      "type": "function"
    },
    {
      "constant": true,
      "inputs": [],
      "name": "getContractType",
      "outputs": [
        {
          "name": "",
          "type": "bytes32"
        }
      ],
      "payable": false,
      "stateMutability": "view",
      "type": "function"
    },
    {
      "constant": true,
      "inputs": [],
      "name": "getPhoneNumber",
      "outputs": [
        {
          "name": "",
          "type": "bytes32"
        }
      ],
      "payable": false,
      "stateMutability": "view",
      "type": "function"
    },
    {
      "constant": true,
      "inputs": [],
      "name": "getMobilePhoneNumber",
      "outputs": [
        {
          "name": "",
          "type": "bytes32"
        }
      ],
      "payable": false,
      "stateMutability": "view",
      "type": "function"
    },
    {
      "constant": true,
      "inputs": [],
      "name": "getFax",
      "outputs": [
        {
          "name": "",
          "type": "bytes32"
        }
      ],
      "payable": false,
      "stateMutability": "view",
      "type": "function"
    },
    {
      "constant": true,
      "inputs": [],
      "name": "getEmail",
      "outputs": [
        {
          "name": "",
          "type": "bytes32"
        }
      ],
      "payable": false,
      "stateMutability": "view",
      "type": "function"
    },
    {
      "constant": false,
      "inputs": [
        {
          "name": "_firstName",
          "type": "bytes32"
        }
      ],
      "name": "setFirstName",
      "outputs": [],
      "payable": false,
      "stateMutability": "nonpayable",
      "type": "function"
    },
    {
      "constant": false,
      "inputs": [
        {
          "name": "_lastName",
          "type": "bytes32"
        }
      ],
      "name": "setLastName",
      "outputs": [],
      "payable": false,
      "stateMutability": "nonpayable",
      "type": "function"
    },
    {
      "constant": false,
      "inputs": [
        {
          "name": "_jobTitle",
          "type": "bytes32"
        }
      ],
      "name": "setJobTitle",
      "outputs": [],
      "payable": false,
      "stateMutability": "nonpayable",
      "type": "function"
    },
    {
      "constant": false,
      "inputs": [
        {
          "name": "_contactType",
          "type": "bytes32"
        }
      ],
      "name": "gsetContractType",
      "outputs": [],
      "payable": false,
      "stateMutability": "nonpayable",
      "type": "function"
    },
    {
      "constant": false,
      "inputs": [
        {
          "name": "_phone",
          "type": "bytes32"
        }
      ],
      "name": "setPhoneNumber",
      "outputs": [],
      "payable": false,
      "stateMutability": "nonpayable",
      "type": "function"
    },
    {
      "constant": false,
      "inputs": [
        {
          "name": "_mobilePhone",
          "type": "bytes32"
        }
      ],
      "name": "setMobilePhoneNumber",
      "outputs": [],
      "payable": false,
      "stateMutability": "nonpayable",
      "type": "function"
    },
    {
      "constant": false,
      "inputs": [
        {
          "name": "_fax",
          "type": "bytes32"
        }
      ],
      "name": "setFax",
      "outputs": [],
      "payable": false,
      "stateMutability": "nonpayable",
      "type": "function"
    },
    {
      "constant": false,
      "inputs": [
        {
          "name": "_email",
          "type": "bytes32"
        }
      ],
      "name": "setEmail",
      "outputs": [],
      "payable": false,
      "stateMutability": "nonpayable",
      "type": "function"
    },
    {
      "constant": false,
      "inputs": [
        {
          "name": "_val",
          "type": "bytes32"
        }
      ],
      "name": "set_lastName",
      "outputs": [],
      "payable": false,
      "stateMutability": "nonpayable",
      "type": "function"
    },
    {
      "constant": true,
      "inputs": [],
      "name": "get_lastName",
      "outputs": [
        {
          "name": "",
          "type": "bytes32"
        }
      ],
      "payable": false,
      "stateMutability": "view",
      "type": "function"
    },
    {
      "constant": false,
      "inputs": [
        {
          "name": "_val",
          "type": "bytes32"
        }
      ],
      "name": "set_jobTitle",
      "outputs": [],
      "payable": false,
      "stateMutability": "nonpayable",
      "type": "function"
    },
    {
      "constant": true,
      "inputs": [],
      "name": "get_jobTitle",
      "outputs": [
        {
          "name": "",
          "type": "bytes32"
        }
      ],
      "payable": false,
      "stateMutability": "view",
      "type": "function"
    },
    {
      "constant": false,
      "inputs": [
        {
          "name": "_val",
          "type": "bytes32"
        }
      ],
      "name": "set_contactType",
      "outputs": [],
      "payable": false,
      "stateMutability": "nonpayable",
      "type": "function"
    },
    {
      "constant": true,
      "inputs": [],
      "name": "get_contactType",
      "outputs": [
        {
          "name": "",
          "type": "bytes32"
        }
      ],
      "payable": false,
      "stateMutability": "view",
      "type": "function"
    },
    {
      "constant": false,
      "inputs": [
        {
          "name": "_val",
          "type": "bytes32"
        }
      ],
      "name": "set_phone",
      "outputs": [],
      "payable": false,
      "stateMutability": "nonpayable",
      "type": "function"
    },
    {
      "constant": true,
      "inputs": [],
      "name": "get_phone",
      "outputs": [
        {
          "name": "",
          "type": "bytes32"
        }
      ],
      "payable": false,
      "stateMutability": "view",
      "type": "function"
    },
    {
      "constant": false,
      "inputs": [
        {
          "name": "_val",
          "type": "bytes32"
        }
      ],
      "name": "set_mobilePhone",
      "outputs": [],
      "payable": false,
      "stateMutability": "nonpayable",
      "type": "function"
    },
    {
      "constant": true,
      "inputs": [],
      "name": "get_mobilePhone",
      "outputs": [
        {
          "name": "",
          "type": "bytes32"
        }
      ],
      "payable": false,
      "stateMutability": "view",
      "type": "function"
    },
    {
      "constant": false,
      "inputs": [
        {
          "name": "_val",
          "type": "bytes32"
        }
      ],
      "name": "set_fax",
      "outputs": [],
      "payable": false,
      "stateMutability": "nonpayable",
      "type": "function"
    },
    {
      "constant": true,
      "inputs": [],
      "name": "get_fax",
      "outputs": [
        {
          "name": "",
          "type": "bytes32"
        }
      ],
      "payable": false,
      "stateMutability": "view",
      "type": "function"
    },
    {
      "constant": false,
      "inputs": [
        {
          "name": "_val",
          "type": "bytes32"
        }
      ],
      "name": "set_email",
      "outputs": [],
      "payable": false,
      "stateMutability": "nonpayable",
      "type": "function"
    },
    {
      "constant": true,
      "inputs": [],
      "name": "get_email",
      "outputs": [
        {
          "name": "",
          "type": "bytes32"
        }
      ],
      "payable": false,
      "stateMutability": "view",
      "type": "function"
    }
  ],
  "bytecode": "0x6060604052341561000f57600080fd5b336000806101000a81548173ffffffffffffffffffffffffffffffffffffffff021916908373ffffffffffffffffffffffffffffffffffffffff160217905550610dee8061005e6000396000f3006060604052600436106101ee576000357c0100000000000000000000000000000000000000000000000000000000900463ffffffff1680630800a5bb146101f3578063157a10fc14610224578063190569fb1461024b57806324db757f1461027257806326ba16ea146102a35780632d7bf51c146102ca5780632ea9cccb146102f1578063331ec89d1461034657806335c208da1461037757806337463899146103a85780633b46705d146103cf5780633ff4b938146104005780634589fe0c1461043157806346d71a2314610462578063552db67c1461048957806356f8a88c146104ba57806359cbb370146104e15780635b9a31dc146105085780635d3270b4146105395780636b1092821461056a5780637e79e8ba1461059b5780637ff6b919146105cc578063820e93f5146105f35780639284f4971461062457806396f2fa8b146106555780639ab03dcb14610686578063a9de6d66146106b7578063abac0bf6146106e8578063b0d024c91461070f578063c51a29e014610740578063c8dd612e14610771578063ca41be9014610798578063ca73f00b146107c9578063d3e2d590146107f0578063d8ebdfb914610817578063d9f5a8ec1461083e578063ea54f5d714610865578063ec7227ff14610896578063ef690ad4146108c7578063fcd44140146108f8575b600080fd5b34156101fe57600080fd5b61020661091f565b60405180826000191660001916815260200191505060405180910390f35b341561022f57600080fd5b610249600480803560001916906020019091905050610929565b005b341561025657600080fd5b610270600480803560001916906020019091905050610992565b005b341561027d57600080fd5b6102856109a0565b60405180826000191660001916815260200191505060405180910390f35b34156102ae57600080fd5b6102c86004808035600019169060200190919050506109aa565b005b34156102d557600080fd5b6102ef6004808035600019169060200190919050506109b8565b005b34156102fc57600080fd5b6103046109c6565b604051808273ffffffffffffffffffffffffffffffffffffffff1673ffffffffffffffffffffffffffffffffffffffff16815260200191505060405180910390f35b341561035157600080fd5b6103596109eb565b60405180826000191660001916815260200191505060405180910390f35b341561038257600080fd5b61038a6109f5565b60405180826000191660001916815260200191505060405180910390f35b34156103b357600080fd5b6103cd6004808035600019169060200190919050506109ff565b005b34156103da57600080fd5b6103e2610a0d565b60405180826000191660001916815260200191505060405180910390f35b341561040b57600080fd5b610413610a17565b60405180826000191660001916815260200191505060405180910390f35b341561043c57600080fd5b610444610a1d565b60405180826000191660001916815260200191505060405180910390f35b341561046d57600080fd5b610487600480803560001916906020019091905050610a23565b005b341561049457600080fd5b61049c610a31565b60405180826000191660001916815260200191505060405180910390f35b34156104c557600080fd5b6104df600480803560001916906020019091905050610a3b565b005b34156104ec57600080fd5b610506600480803560001916906020019091905050610a49565b005b341561051357600080fd5b61051b610ab2565b60405180826000191660001916815260200191505060405180910390f35b341561054457600080fd5b61054c610abc565b60405180826000191660001916815260200191505060405180910390f35b341561057557600080fd5b61057d610ac2565b60405180826000191660001916815260200191505060405180910390f35b34156105a657600080fd5b6105ae610acc565b60405180826000191660001916815260200191505060405180910390f35b34156105d757600080fd5b6105f1600480803560001916906020019091905050610ad6565b005b34156105fe57600080fd5b610606610b3f565b60405180826000191660001916815260200191505060405180910390f35b341561062f57600080fd5b610637610b45565b60405180826000191660001916815260200191505060405180910390f35b341561066057600080fd5b610668610b4b565b60405180826000191660001916815260200191505060405180910390f35b341561069157600080fd5b610699610b51565b60405180826000191660001916815260200191505060405180910390f35b34156106c257600080fd5b6106ca610b57565b60405180826000191660001916815260200191505060405180910390f35b34156106f357600080fd5b61070d600480803560001916906020019091905050610b61565b005b341561071a57600080fd5b610722610b6f565b60405180826000191660001916815260200191505060405180910390f35b341561074b57600080fd5b610753610b79565b60405180826000191660001916815260200191505060405180910390f35b341561077c57600080fd5b610796600480803560001916906020019091905050610b83565b005b34156107a357600080fd5b6107ab610b91565b60405180826000191660001916815260200191505060405180910390f35b34156107d457600080fd5b6107ee600480803560001916906020019091905050610b9b565b005b34156107fb57600080fd5b610815600480803560001916906020019091905050610c04565b005b341561082257600080fd5b61083c600480803560001916906020019091905050610c6d565b005b341561084957600080fd5b610863600480803560001916906020019091905050610cd6565b005b341561087057600080fd5b610878610d3f565b60405180826000191660001916815260200191505060405180910390f35b34156108a157600080fd5b6108a9610d49565b60405180826000191660001916815260200191505060405180910390f35b34156108d257600080fd5b6108da610d53565b60405180826000191660001916815260200191505060405180910390f35b341561090357600080fd5b61091d600480803560001916906020019091905050610d59565b005b6000600554905090565b6000809054906101000a900473ffffffffffffffffffffffffffffffffffffffff1673ffffffffffffffffffffffffffffffffffffffff163373ffffffffffffffffffffffffffffffffffffffff1614151561098457600080fd5b806002816000191690555050565b806007816000191690555050565b6000600554905090565b806002816000191690555050565b806003816000191690555050565b6000809054906101000a900473ffffffffffffffffffffffffffffffffffffffff1681565b6000600654905090565b6000600254905090565b806001816000191690555050565b6000600654905090565b60035481565b60015481565b806004816000191690555050565b6000600354905090565b806006816000191690555050565b6000809054906101000a900473ffffffffffffffffffffffffffffffffffffffff1673ffffffffffffffffffffffffffffffffffffffff163373ffffffffffffffffffffffffffffffffffffffff16141515610aa457600080fd5b806005816000191690555050565b6000600854905090565b60045481565b6000600254905090565b6000600854905090565b6000809054906101000a900473ffffffffffffffffffffffffffffffffffffffff1673ffffffffffffffffffffffffffffffffffffffff163373ffffffffffffffffffffffffffffffffffffffff16141515610b3157600080fd5b806004816000191690555050565b60085481565b60055481565b60065481565b60025481565b6000600754905090565b806005816000191690555050565b6000600154905090565b6000600454905090565b806008816000191690555050565b6000600454905090565b6000809054906101000a900473ffffffffffffffffffffffffffffffffffffffff1673ffffffffffffffffffffffffffffffffffffffff163373ffffffffffffffffffffffffffffffffffffffff16141515610bf657600080fd5b806006816000191690555050565b6000809054906101000a900473ffffffffffffffffffffffffffffffffffffffff1673ffffffffffffffffffffffffffffffffffffffff163373ffffffffffffffffffffffffffffffffffffffff16141515610c5f57600080fd5b806003816000191690555050565b6000809054906101000a900473ffffffffffffffffffffffffffffffffffffffff1673ffffffffffffffffffffffffffffffffffffffff163373ffffffffffffffffffffffffffffffffffffffff16141515610cc857600080fd5b806007816000191690555050565b6000809054906101000a900473ffffffffffffffffffffffffffffffffffffffff1673ffffffffffffffffffffffffffffffffffffffff163373ffffffffffffffffffffffffffffffffffffffff16141515610d3157600080fd5b806001816000191690555050565b6000600754905090565b6000600354905090565b60075481565b6000809054906101000a900473ffffffffffffffffffffffffffffffffffffffff1673ffffffffffffffffffffffffffffffffffffffff163373ffffffffffffffffffffffffffffffffffffffff16141515610db457600080fd5b8060088160001916905550505600a165627a7a723058206ac33abb5862ad9a22755829524919fed28aef6970d3534e3238c7eb5cd45e680029",
  "source": "pragma solidity ^0.4.17;\n\n\ncontract CarrierContact {\n\n    address public managingContract;\n    bytes32 public firstName;\n    bytes32 public lastName;\n    bytes32 public jobTitle;\n    bytes32 public contactType;\n    bytes32 public phone;\n    bytes32 public mobilePhone;\n    bytes32 public fax;\n    bytes32 public email;\n\n\n    function CarrierContact() public {\n        managingContract = msg.sender;\n    }\n\n\n\n    function set_firstName(bytes32 _val) public {\n        require(msg.sender == managingContract);\n        firstName = _val;\n    }\n\n    function get_firstName() public view returns (bytes32) {\n        return firstName;\n    }\n\n    function getLastName() public view returns (bytes32) {\n        return lastName;\n    }\n\n    function getJobTitle() public view returns (bytes32) {\n        return jobTitle;\n    }\n\n    function getContractType() public view returns (bytes32) {\n        return contactType;\n    }\n\n    function getPhoneNumber() public view returns (bytes32) {\n        return phone;\n    }\n\n    function getMobilePhoneNumber() public view returns (bytes32) {\n        return mobilePhone;\n    }\n\n    function getFax() public view returns (bytes32) {\n        return fax;\n    }\n\n    function getEmail() public view returns (bytes32) {\n        return email;\n    }\n\n    function setFirstName(bytes32 _firstName) public {\n        firstName = _firstName;\n    }\n\n    function setLastName(bytes32 _lastName) public {\n        lastName = _lastName;\n    }\n\n    function setJobTitle(bytes32 _jobTitle) public {\n        jobTitle = _jobTitle;\n    }\n\n    function gsetContractType(bytes32 _contactType) public {\n        contactType = _contactType;\n    }\n\n    function setPhoneNumber(bytes32 _phone) public {\n        phone = _phone;\n    }\n\n    function setMobilePhoneNumber(bytes32 _mobilePhone) public {\n        mobilePhone = _mobilePhone;\n    }\n\n    function setFax(bytes32 _fax) public {\n        fax = _fax;\n    }\n\n    function setEmail(bytes32 _email) public {\n        email = _email;\n    }\n\n    function set_lastName(bytes32 _val) public {\n        require(msg.sender == managingContract);\n        lastName = _val;\n    }\n\n    function get_lastName() public view returns (bytes32) {\n        return lastName;\n    }\n\n\n\n    function set_jobTitle(bytes32 _val) public {\n        require(msg.sender == managingContract);\n        jobTitle = _val;\n    }\n\n    function get_jobTitle() public view returns (bytes32) {\n        return jobTitle;\n    }\n\n\n\n    function set_contactType(bytes32 _val) public {\n        require(msg.sender == managingContract);\n        contactType = _val;\n    }\n\n    function get_contactType() public view returns (bytes32) {\n        return contactType;\n    }\n\n\n\n    function set_phone(bytes32 _val) public {\n        require(msg.sender == managingContract);\n        phone = _val;\n    }\n\n    function get_phone() public view returns (bytes32) {\n        return phone;\n    }\n\n\n\n    function set_mobilePhone(bytes32 _val) public {\n        require(msg.sender == managingContract);\n        mobilePhone = _val;\n    }\n\n    function get_mobilePhone() public view returns (bytes32) {\n        return mobilePhone;\n    }\n\n\n\n    function set_fax(bytes32 _val) public {\n        require(msg.sender == managingContract);\n        fax = _val;\n    }\n\n    function get_fax() public view returns (bytes32) {\n        return fax;\n    }\n\n\n\n    function set_email(bytes32 _val) public {\n        require(msg.sender == managingContract);\n        email = _val;\n    }\n\n    function get_email() public view returns (bytes32) {\n        return email;\n    }\n\n\n\n\n\n\n}",
  "sourcePath": "/Users/tejnakk/Documents/JbHackathon2018/hackathon-blockchain/contracts/CarrierContact.sol",
  "compiler": {
    "name": "solc",
    "version": "0.4.19+commit.c4cbbb05.Emscripten.clang"
  },
  "schemaVersion": "2.0.0",
  "updatedAt": "2018-03-07T20:30:53.751Z"
}