{
  "contractName": "Carrier",
  "abi": [
    {
      "constant": true,
      "inputs": [],
      "name": "owner",
      "outputs": [
        {
          "name": "",
          "type": "address"
        }
      ],
      "payable": false,
      "stateMutability": "view",
      "type": "function"
    },
    {
      "constant": true,
      "inputs": [],
      "name": "dot_information",
      "outputs": [
        {
          "name": "",
          "type": "address"
        }
      ],
      "payable": false,
      "stateMutability": "view",
      "type": "function"
    },
    {
      "constant": true,
      "inputs": [
        {
          "name": "",
          "type": "uint256"
        }
      ],
      "name": "contacts",
      "outputs": [
        {
          "name": "",
          "type": "address"
        }
      ],
      "payable": false,
      "stateMutability": "view",
      "type": "function"
    },
    {
      "inputs": [],
      "payable": false,
      "stateMutability": "nonpayable",
      "type": "constructor"
    },
    {
      "constant": false,
      "inputs": [
        {
          "name": "_firstName",
          "type": "bytes32"
        },
        {
          "name": "_lastName",
          "type": "bytes32"
        },
        {
          "name": "_jobTitle",
          "type": "bytes32"
        },
        {
          "name": "_contactType",
          "type": "bytes32"
        },
        {
          "name": "_phone",
          "type": "bytes32"
        },
        {
          "name": "_mobilePhone",
          "type": "bytes32"
        },
        {
          "name": "_fax",
          "type": "bytes32"
        },
        {
          "name": "_email",
          "type": "bytes32"
        }
      ],
      "name": "addContact",
      "outputs": [],
      "payable": false,
      "stateMutability": "nonpayable",
      "type": "function"
    },
    {
      "constant": true,
      "inputs": [],
      "name": "getContacts",
      "outputs": [
        {
          "name": "",
          "type": "address[]"
        }
      ],
      "payable": false,
      "stateMutability": "view",
      "type": "function"
    },
    {
      "constant": false,
      "inputs": [
        {
          "name": "_usDotNumber",
          "type": "bytes32"
        },
        {
          "name": "_dbaName",
          "type": "bytes32"
        },
        {
          "name": "_legalName",
          "type": "bytes32"
        },
        {
          "name": "_streetAddress",
          "type": "bytes32"
        },
        {
          "name": "_streetPhone",
          "type": "bytes32"
        },
        {
          "name": "_mailingAddress",
          "type": "bytes32"
        },
        {
          "name": "_mailingPhone",
          "type": "bytes32"
        }
      ],
      "name": "addDotInfo",
      "outputs": [],
      "payable": false,
      "stateMutability": "nonpayable",
      "type": "function"
    },
    {
      "constant": true,
      "inputs": [],
      "name": "getDotNumber",
      "outputs": [
        {
          "name": "",
          "type": "bytes32"
        }
      ],
      "payable": false,
      "stateMutability": "view",
      "type": "function"
    }
  ],
  "bytecode": "0x6060604052341561000f57600080fd5b336000806101000a81548173ffffffffffffffffffffffffffffffffffffffff021916908373ffffffffffffffffffffffffffffffffffffffff1602179055506110a98061005e6000396000f300606060405260043610610083576000357c0100000000000000000000000000000000000000000000000000000000900463ffffffff168063469a9056146100885780638a6bc6ff146100b95780638da5cb5b1461013b578063c1ef965b14610190578063db920b7714610205578063dcca8fc51461026f578063e0f478cb146102c4575b600080fd5b341561009357600080fd5b61009b610327565b60405180826000191660001916815260200191505060405180910390f35b34156100c457600080fd5b610139600480803560001916906020019091908035600019169060200190919080356000191690602001909190803560001916906020019091908035600019169060200190919080356000191690602001909190803560001916906020019091908035600019169060200190919050506103d7565b005b341561014657600080fd5b61014e610545565b604051808273ffffffffffffffffffffffffffffffffffffffff1673ffffffffffffffffffffffffffffffffffffffff16815260200191505060405180910390f35b341561019b57600080fd5b61020360048080356000191690602001909190803560001916906020019091908035600019169060200190919080356000191690602001909190803560001916906020019091908035600019169060200190919080356000191690602001909190505061056a565b005b341561021057600080fd5b61021861069f565b6040518080602001828103825283818151815260200191508051906020019060200280838360005b8381101561025b578082015181840152602081019050610240565b505050509050019250505060405180910390f35b341561027a57600080fd5b610282610733565b604051808273ffffffffffffffffffffffffffffffffffffffff1673ffffffffffffffffffffffffffffffffffffffff16815260200191505060405180910390f35b34156102cf57600080fd5b6102e56004808035906020019091905050610759565b604051808273ffffffffffffffffffffffffffffffffffffffff1673ffffffffffffffffffffffffffffffffffffffff16815260200191505060405180910390f35b6000600260009054906101000a900473ffffffffffffffffffffffffffffffffffffffff1673ffffffffffffffffffffffffffffffffffffffff1663671d1f856000604051602001526040518163ffffffff167c0100000000000000000000000000000000000000000000000000000000028152600401602060405180830381600087803b15156103b757600080fd5b6102c65a03f115156103c857600080fd5b50505060405180519050905090565b60008060009054906101000a900473ffffffffffffffffffffffffffffffffffffffff1673ffffffffffffffffffffffffffffffffffffffff163373ffffffffffffffffffffffffffffffffffffffff1614151561043457600080fd5b8888888888888888610444610798565b808960001916600019168152602001886000191660001916815260200187600019166000191681526020018660001916600019168152602001856000191660001916815260200184600019166000191681526020018360001916600019168152602001826000191660001916815260200198505050505050505050604051809103906000f08015156104d557600080fd5b9050600180548060010182816104eb91906107a8565b9160005260206000209001600083909190916101000a81548173ffffffffffffffffffffffffffffffffffffffff021916908373ffffffffffffffffffffffffffffffffffffffff16021790555050505050505050505050565b6000809054906101000a900473ffffffffffffffffffffffffffffffffffffffff1681565b6000809054906101000a900473ffffffffffffffffffffffffffffffffffffffff1673ffffffffffffffffffffffffffffffffffffffff163373ffffffffffffffffffffffffffffffffffffffff161415156105c557600080fd5b868686868686866105d46107d4565b808860001916600019168152602001876000191660001916815260200186600019166000191681526020018560001916600019168152602001846000191660001916815260200183600019166000191681526020018260001916600019168152602001975050505050505050604051809103906000f080151561065657600080fd5b600260006101000a81548173ffffffffffffffffffffffffffffffffffffffff021916908373ffffffffffffffffffffffffffffffffffffffff16021790555050505050505050565b6106a76107e4565b600180548060200260200160405190810160405280929190818152602001828054801561072957602002820191906000526020600020905b8160009054906101000a900473ffffffffffffffffffffffffffffffffffffffff1673ffffffffffffffffffffffffffffffffffffffff16815260200190600101908083116106df575b5050505050905090565b600260009054906101000a900473ffffffffffffffffffffffffffffffffffffffff1681565b60018181548110151561076857fe5b90600052602060002090016000915054906101000a900473ffffffffffffffffffffffffffffffffffffffff1681565b60405161045c8061081e83390190565b8154818355818115116107cf578183600052602060002091820191016107ce91906107f8565b5b505050565b60405161040480610c7a83390190565b602060405190810160405280600081525090565b61081a91905b808211156108165760008160009055506001016107fe565b5090565b9056006060604052341561000f57600080fd5b6040516101008061045c83398101604052808051906020019091908051906020019091908051906020019091908051906020019091908051906020019091908051906020019091908051906020019091908051906020019091905050336000806101000a81548173ffffffffffffffffffffffffffffffffffffffff021916908373ffffffffffffffffffffffffffffffffffffffff1602179055508760018160001916905550866002816000191690555085600381600019169055508460048160001916905550836005816000191690555082600681600019169055508160078160001916905550806008816000191690555050505050505050506103428061011a6000396000f3006060604052600436106100a4576000357c0100000000000000000000000000000000000000000000000000000000900463ffffffff1680632ea9cccb146100a95780633ff4b938146100fe5780634589fe0c1461012f5780635d3270b414610160578063820e93f5146101915780639284f497146101c2578063932997f1146101f357806396f2fa8b146102245780639ab03dcb14610255578063ef690ad414610286575b600080fd5b34156100b457600080fd5b6100bc6102b7565b604051808273ffffffffffffffffffffffffffffffffffffffff1673ffffffffffffffffffffffffffffffffffffffff16815260200191505060405180910390f35b341561010957600080fd5b6101116102dc565b60405180826000191660001916815260200191505060405180910390f35b341561013a57600080fd5b6101426102e2565b60405180826000191660001916815260200191505060405180910390f35b341561016b57600080fd5b6101736102e8565b60405180826000191660001916815260200191505060405180910390f35b341561019c57600080fd5b6101a46102ee565b60405180826000191660001916815260200191505060405180910390f35b34156101cd57600080fd5b6101d56102f4565b60405180826000191660001916815260200191505060405180910390f35b34156101fe57600080fd5b6102066102fa565b60405180826000191660001916815260200191505060405180910390f35b341561022f57600080fd5b610237610304565b60405180826000191660001916815260200191505060405180910390f35b341561026057600080fd5b61026861030a565b60405180826000191660001916815260200191505060405180910390f35b341561029157600080fd5b610299610310565b60405180826000191660001916815260200191505060405180910390f35b6000809054906101000a900473ffffffffffffffffffffffffffffffffffffffff1681565b60035481565b60015481565b60045481565b60085481565b60055481565b6000600154905090565b60065481565b60025481565b600754815600a165627a7a72305820fdf3d2b6f704641fcab71852adf966caa6e70034c66a9c64d21087fcf9cd318300296060604052341561000f57600080fd5b60405160e08061040483398101604052808051906020019091908051906020019091908051906020019091908051906020019091908051906020019091908051906020019091908051906020019091905050336000806101000a81548173ffffffffffffffffffffffffffffffffffffffff021916908373ffffffffffffffffffffffffffffffffffffffff160217905550866001816000191690555085600281600019169055508460038160001916905550836004816000191690555082600581600019169055508160068160001916905550806007816000191690555050505050505050610300806101046000396000f300606060405260043610610099576000357c0100000000000000000000000000000000000000000000000000000000900463ffffffff1680632ea9cccb1461009e578063469a9056146100f357806347d9057614610124578063669875ca14610155578063671d1f851461018657806391b21ae6146101b7578063ae42f151146101e8578063b254156414610219578063feb97ccc1461024a575b600080fd5b34156100a957600080fd5b6100b161027b565b604051808273ffffffffffffffffffffffffffffffffffffffff1673ffffffffffffffffffffffffffffffffffffffff16815260200191505060405180910390f35b34156100fe57600080fd5b6101066102a0565b60405180826000191660001916815260200191505060405180910390f35b341561012f57600080fd5b6101376102aa565b60405180826000191660001916815260200191505060405180910390f35b341561016057600080fd5b6101686102b0565b60405180826000191660001916815260200191505060405180910390f35b341561019157600080fd5b6101996102b6565b60405180826000191660001916815260200191505060405180910390f35b34156101c257600080fd5b6101ca6102bc565b60405180826000191660001916815260200191505060405180910390f35b34156101f357600080fd5b6101fb6102c2565b60405180826000191660001916815260200191505060405180910390f35b341561022457600080fd5b61022c6102c8565b60405180826000191660001916815260200191505060405180910390f35b341561025557600080fd5b61025d6102ce565b60405180826000191660001916815260200191505060405180910390f35b6000809054906101000a900473ffffffffffffffffffffffffffffffffffffffff1681565b6000600154905090565b60045481565b60055481565b60015481565b60025481565b60065481565b60035481565b600754815600a165627a7a7230582024a6c8caaf1d89c67228a68c0fa9bd276a7af22515d5521c3bc00abfafb13fd60029a165627a7a72305820b0bced95a1c1b05bf69e4a9a8f20bfad4ec6a97d81a1b98613703c06d1dbc4180029",
  "source": "pragma solidity ^0.4.17;\nimport \"./CarrierContact.sol\";\nimport \"./CarrierDotInfo.sol\";\n\ncontract Carrier {\n\n    address public owner;\n    address[] public contacts;\n    address public dot_information;\n\n    function Carrier() public {\n        owner = msg.sender;\n    }\n\n    function addContact(\n        bytes32 _firstName,\n        bytes32 _lastName,\n        bytes32 _jobTitle,\n        bytes32 _contactType,\n        bytes32 _phone,\n        bytes32 _mobilePhone,\n        bytes32 _fax,\n        bytes32 _email\n    ) public\n    {\n        require(msg.sender == owner);\n        CarrierContact contact = new CarrierContact(\n            _firstName,\n            _lastName,\n            _jobTitle,\n            _contactType,\n            _phone,\n            _mobilePhone,\n            _fax,\n            _email\n        );\n        contacts.push(contact);\n    }\n\n    function getContacts() public view returns (address[]) {\n        return contacts;\n    }\n\n\n\n    function addDotInfo(\n        bytes32 _usDotNumber,\n        bytes32 _dbaName,\n        bytes32 _legalName,\n        bytes32 _streetAddress,\n        bytes32 _streetPhone,\n        bytes32 _mailingAddress,\n        bytes32 _mailingPhone\n    ) public\n    {\n        require(msg.sender == owner);\n        dot_information = new CarrierDotInfo(\n            _usDotNumber,\n            _dbaName,\n            _legalName,\n            _streetAddress,\n            _streetPhone,\n            _mailingAddress,\n            _mailingPhone\n        );\n    }\n\n    function getDotNumber() public view returns (bytes32) {\n        return CarrierDotInfo(dot_information).usDotNumber();\n    }\n\n}",
  "sourcePath": "/Users/jantimpe/Documents/hackathon/contracts/Carrier.sol",
  "compiler": {
    "name": "solc",
    "version": "0.4.19+commit.c4cbbb05.Emscripten.clang"
  },
  "schemaVersion": "2.0.0",
  "updatedAt": "2018-03-07T19:15:40.797Z"
}