{
  "contractName": "CarrierContact",
  "abi": [
    {
      "constant": true,
      "inputs": [],
      "name": "jobTitle",
      "outputs": [
        {
          "name": "",
          "type": "bytes32"
        }
      ],
      "payable": false,
      "stateMutability": "view",
      "type": "function"
    },
    {
      "constant": true,
      "inputs": [],
      "name": "firstName",
      "outputs": [
        {
          "name": "",
          "type": "bytes32"
        }
      ],
      "payable": false,
      "stateMutability": "view",
      "type": "function"
    },
    {
      "constant": true,
      "inputs": [],
      "name": "contactType",
      "outputs": [
        {
          "name": "",
          "type": "bytes32"
        }
      ],
      "payable": false,
      "stateMutability": "view",
      "type": "function"
    },
    {
      "constant": true,
      "inputs": [],
      "name": "email",
      "outputs": [
        {
          "name": "",
          "type": "bytes32"
        }
      ],
      "payable": false,
      "stateMutability": "view",
      "type": "function"
    },
    {
      "constant": true,
      "inputs": [],
      "name": "phone",
      "outputs": [
        {
          "name": "",
          "type": "bytes32"
        }
      ],
      "payable": false,
      "stateMutability": "view",
      "type": "function"
    },
    {
      "constant": true,
      "inputs": [],
      "name": "mobilePhone",
      "outputs": [
        {
          "name": "",
          "type": "bytes32"
        }
      ],
      "payable": false,
      "stateMutability": "view",
      "type": "function"
    },
    {
      "constant": true,
      "inputs": [],
      "name": "lastName",
      "outputs": [
        {
          "name": "",
          "type": "bytes32"
        }
      ],
      "payable": false,
      "stateMutability": "view",
      "type": "function"
    },
    {
      "constant": true,
      "inputs": [],
      "name": "fax",
      "outputs": [
        {
          "name": "",
          "type": "bytes32"
        }
      ],
      "payable": false,
      "stateMutability": "view",
      "type": "function"
    },
    {
      "inputs": [
        {
          "name": "_firstName",
          "type": "bytes32"
        },
        {
          "name": "_lastName",
          "type": "bytes32"
        },
        {
          "name": "_jobTitle",
          "type": "bytes32"
        },
        {
          "name": "_contactType",
          "type": "bytes32"
        },
        {
          "name": "_phone",
          "type": "bytes32"
        },
        {
          "name": "_mobilePhone",
          "type": "bytes32"
        },
        {
          "name": "_fax",
          "type": "bytes32"
        },
        {
          "name": "_email",
          "type": "bytes32"
        }
      ],
      "payable": false,
      "stateMutability": "nonpayable",
      "type": "constructor"
    },
    {
      "constant": true,
      "inputs": [],
      "name": "getFirstName",
      "outputs": [
        {
          "name": "",
          "type": "bytes32"
        }
      ],
      "payable": false,
      "stateMutability": "view",
      "type": "function"
    }
  ],
  "bytecode": "0x6060604052341561000f57600080fd5b60405161010080610396833981016040528080519060200190919080519060200190919080519060200190919080519060200190919080519060200190919080519060200190919080519060200190919080519060200190919050508760008160001916905550866001816000191690555085600281600019169055508460038160001916905550836004816000191690555082600581600019169055508160068160001916905550806007816000191690555050505050505050506102bc806100da6000396000f300606060405260043610610099576000357c0100000000000000000000000000000000000000000000000000000000900463ffffffff1680633ff4b9381461009e5780634589fe0c146100cf5780635d3270b414610100578063820e93f5146101315780639284f49714610162578063932997f11461019357806396f2fa8b146101c45780639ab03dcb146101f5578063ef690ad414610226575b600080fd5b34156100a957600080fd5b6100b1610257565b60405180826000191660001916815260200191505060405180910390f35b34156100da57600080fd5b6100e261025d565b60405180826000191660001916815260200191505060405180910390f35b341561010b57600080fd5b610113610263565b60405180826000191660001916815260200191505060405180910390f35b341561013c57600080fd5b610144610269565b60405180826000191660001916815260200191505060405180910390f35b341561016d57600080fd5b61017561026f565b60405180826000191660001916815260200191505060405180910390f35b341561019e57600080fd5b6101a6610275565b60405180826000191660001916815260200191505060405180910390f35b34156101cf57600080fd5b6101d761027e565b60405180826000191660001916815260200191505060405180910390f35b341561020057600080fd5b610208610284565b60405180826000191660001916815260200191505060405180910390f35b341561023157600080fd5b61023961028a565b60405180826000191660001916815260200191505060405180910390f35b60025481565b60005481565b60035481565b60075481565b60045481565b60008054905090565b60055481565b60015481565b600654815600a165627a7a72305820e9aee4b2f4990cba89dae5729a844db76e7f8fde16438a3cd85c9f7f42c9bf870029",
  "source": "pragma solidity ^0.4.17;\n\n\ncontract CarrierContact {\n\n    bytes32 public firstName;\n    bytes32 public lastName;\n    bytes32 public jobTitle;\n    bytes32 public contactType;\n    bytes32 public phone;\n    bytes32 public mobilePhone;\n    bytes32 public fax;\n    bytes32 public email;\n\n\n    function CarrierContact(\n        bytes32 _firstName,\n        bytes32 _lastName,\n        bytes32 _jobTitle,\n        bytes32 _contactType,\n        bytes32 _phone,\n        bytes32 _mobilePhone,\n        bytes32 _fax,\n        bytes32 _email\n    ) public \n    {\n        firstName = _firstName;\n        lastName = _lastName;\n        jobTitle = _jobTitle;\n        contactType = _contactType;\n        phone = _phone;\n        mobilePhone = _mobilePhone;\n        fax = _fax;\n        email = _email;\n    }\n\n\n    function getFirstName() public view returns (bytes32) {\n        return firstName;\n    }\n\n\n\n}",
  "sourcePath": "/Users/jantimpe/Documents/hackathon/contracts/CarrierContact.sol",
  "compiler": {
    "name": "solc",
    "version": "0.4.19+commit.c4cbbb05.Emscripten.clang"
  },
  "schemaVersion": "2.0.0",
  "updatedAt": "2018-03-07T18:36:49.293Z"
}