{
  "contractName": "CarrierDotInfo",
  "abi": [
    {
      "constant": true,
      "inputs": [],
      "name": "managingContract",
      "outputs": [
        {
          "name": "",
          "type": "address"
        }
      ],
      "payable": false,
      "stateMutability": "view",
      "type": "function"
    },
    {
      "constant": true,
      "inputs": [],
      "name": "streetAddress",
      "outputs": [
        {
          "name": "",
          "type": "string"
        }
      ],
      "payable": false,
      "stateMutability": "view",
      "type": "function"
    },
    {
      "constant": true,
      "inputs": [],
      "name": "streetPhone",
      "outputs": [
        {
          "name": "",
          "type": "string"
        }
      ],
      "payable": false,
      "stateMutability": "view",
      "type": "function"
    },
    {
      "constant": true,
      "inputs": [],
      "name": "usDotNumber",
      "outputs": [
        {
          "name": "",
          "type": "string"
        }
      ],
      "payable": false,
      "stateMutability": "view",
      "type": "function"
    },
    {
      "constant": true,
      "inputs": [],
      "name": "dbaName",
      "outputs": [
        {
          "name": "",
          "type": "string"
        }
      ],
      "payable": false,
      "stateMutability": "view",
      "type": "function"
    },
    {
      "constant": true,
      "inputs": [],
      "name": "mailingAddress",
      "outputs": [
        {
          "name": "",
          "type": "string"
        }
      ],
      "payable": false,
      "stateMutability": "view",
      "type": "function"
    },
    {
      "constant": true,
      "inputs": [],
      "name": "legalName",
      "outputs": [
        {
          "name": "",
          "type": "string"
        }
      ],
      "payable": false,
      "stateMutability": "view",
      "type": "function"
    },
    {
      "constant": true,
      "inputs": [],
      "name": "mailingPhone",
      "outputs": [
        {
          "name": "",
          "type": "string"
        }
      ],
      "payable": false,
      "stateMutability": "view",
      "type": "function"
    },
    {
      "inputs": [],
      "payable": false,
      "stateMutability": "nonpayable",
      "type": "constructor"
    },
    {
      "constant": true,
      "inputs": [],
      "name": "getManagingContract",
      "outputs": [
        {
          "name": "",
          "type": "address"
        }
      ],
      "payable": false,
      "stateMutability": "view",
      "type": "function"
    },
    {
      "constant": true,
      "inputs": [],
      "name": "getUsDotNumber",
      "outputs": [
        {
          "name": "",
          "type": "string"
        }
      ],
      "payable": false,
      "stateMutability": "view",
      "type": "function"
    },
    {
      "constant": true,
      "inputs": [],
      "name": "getDbaName",
      "outputs": [
        {
          "name": "",
          "type": "string"
        }
      ],
      "payable": false,
      "stateMutability": "view",
      "type": "function"
    },
    {
      "constant": true,
      "inputs": [],
      "name": "getLegalName",
      "outputs": [
        {
          "name": "",
          "type": "string"
        }
      ],
      "payable": false,
      "stateMutability": "view",
      "type": "function"
    },
    {
      "constant": true,
      "inputs": [],
      "name": "getStreetAddress",
      "outputs": [
        {
          "name": "",
          "type": "string"
        }
      ],
      "payable": false,
      "stateMutability": "view",
      "type": "function"
    },
    {
      "constant": true,
      "inputs": [],
      "name": "getStreetPhone",
      "outputs": [
        {
          "name": "",
          "type": "string"
        }
      ],
      "payable": false,
      "stateMutability": "view",
      "type": "function"
    },
    {
      "constant": true,
      "inputs": [],
      "name": "getMailingAddress",
      "outputs": [
        {
          "name": "",
          "type": "string"
        }
      ],
      "payable": false,
      "stateMutability": "view",
      "type": "function"
    },
    {
      "constant": true,
      "inputs": [],
      "name": "getMailingPhone",
      "outputs": [
        {
          "name": "",
          "type": "string"
        }
      ],
      "payable": false,
      "stateMutability": "view",
      "type": "function"
    },
    {
      "constant": false,
      "inputs": [
        {
          "name": "_managingContract",
          "type": "address"
        }
      ],
      "name": "setManagingContract",
      "outputs": [],
      "payable": false,
      "stateMutability": "nonpayable",
      "type": "function"
    },
    {
      "constant": false,
      "inputs": [
        {
          "name": "_usDotNumber",
          "type": "string"
        }
      ],
      "name": "setUsDotNumber",
      "outputs": [],
      "payable": false,
      "stateMutability": "nonpayable",
      "type": "function"
    },
    {
      "constant": false,
      "inputs": [
        {
          "name": "_dbaName",
          "type": "string"
        }
      ],
      "name": "setDbaName",
      "outputs": [],
      "payable": false,
      "stateMutability": "nonpayable",
      "type": "function"
    },
    {
      "constant": false,
      "inputs": [
        {
          "name": "_legalName",
          "type": "string"
        }
      ],
      "name": "setLegalName",
      "outputs": [],
      "payable": false,
      "stateMutability": "nonpayable",
      "type": "function"
    },
    {
      "constant": false,
      "inputs": [
        {
          "name": "_streetAddress",
          "type": "string"
        }
      ],
      "name": "setStreetAddress",
      "outputs": [],
      "payable": false,
      "stateMutability": "nonpayable",
      "type": "function"
    },
    {
      "constant": false,
      "inputs": [
        {
          "name": "_streetPhone",
          "type": "string"
        }
      ],
      "name": "setStreetPhone",
      "outputs": [],
      "payable": false,
      "stateMutability": "nonpayable",
      "type": "function"
    },
    {
      "constant": false,
      "inputs": [
        {
          "name": "_mailingAddress",
          "type": "string"
        }
      ],
      "name": "setMailingAddress",
      "outputs": [],
      "payable": false,
      "stateMutability": "nonpayable",
      "type": "function"
    },
    {
      "constant": false,
      "inputs": [
        {
          "name": "_mailingPhone",
          "type": "string"
        }
      ],
      "name": "setMailingPhone",
      "outputs": [],
      "payable": false,
      "stateMutability": "nonpayable",
      "type": "function"
    }
  ],
  "bytecode": "0x6060604052341561000f57600080fd5b336000806101000a81548173ffffffffffffffffffffffffffffffffffffffff021916908373ffffffffffffffffffffffffffffffffffffffff16021790555061178b8061005e6000396000f30060606040526004361061013e576000357c0100000000000000000000000000000000000000000000000000000000900463ffffffff1680630206f649146101435780632ca0af38146101a05780632dadc44f146101fd5780632ea9cccb1461025a5780633d18b522146102af57806347d905761461030c5780634f1211231461039a578063669875ca146103d3578063671d1f85146104615780637d2b5d97146104ef57806391b21ae61461054c578063ae42f151146105da578063b254156414610668578063b924ea96146106f6578063c89a19e91461074b578063c8b33a18146107d9578063ced96fb214610867578063d000025f146108f5578063d387427614610983578063d7e4159514610a11578063e0dce2ac14610a9f578063e2398eba14610afc578063fddb8f7d14610b8a578063feb97ccc14610be7575b600080fd5b341561014e57600080fd5b61019e600480803590602001908201803590602001908080601f01602080910402602001604051908101604052809392919081815260200183838082843782019150505050505091905050610c75565b005b34156101ab57600080fd5b6101fb600480803590602001908201803590602001908080601f01602080910402602001604051908101604052809392919081815260200183838082843782019150505050505091905050610c8f565b005b341561020857600080fd5b610258600480803590602001908201803590602001908080601f01602080910402602001604051908101604052809392919081815260200183838082843782019150505050505091905050610ca9565b005b341561026557600080fd5b61026d610cc3565b604051808273ffffffffffffffffffffffffffffffffffffffff1673ffffffffffffffffffffffffffffffffffffffff16815260200191505060405180910390f35b34156102ba57600080fd5b61030a600480803590602001908201803590602001908080601f01602080910402602001604051908101604052809392919081815260200183838082843782019150505050505091905050610ce8565b005b341561031757600080fd5b61031f610d02565b6040518080602001828103825283818151815260200191508051906020019080838360005b8381101561035f578082015181840152602081019050610344565b50505050905090810190601f16801561038c5780820380516001836020036101000a031916815260200191505b509250505060405180910390f35b34156103a557600080fd5b6103d1600480803573ffffffffffffffffffffffffffffffffffffffff16906020019091905050610da0565b005b34156103de57600080fd5b6103e6610de3565b6040518080602001828103825283818151815260200191508051906020019080838360005b8381101561042657808201518184015260208101905061040b565b50505050905090810190601f1680156104535780820380516001836020036101000a031916815260200191505b509250505060405180910390f35b341561046c57600080fd5b610474610e81565b6040518080602001828103825283818151815260200191508051906020019080838360005b838110156104b4578082015181840152602081019050610499565b50505050905090810190601f1680156104e15780820380516001836020036101000a031916815260200191505b509250505060405180910390f35b34156104fa57600080fd5b61054a600480803590602001908201803590602001908080601f01602080910402602001604051908101604052809392919081815260200183838082843782019150505050505091905050610f1f565b005b341561055757600080fd5b61055f610f39565b6040518080602001828103825283818151815260200191508051906020019080838360005b8381101561059f578082015181840152602081019050610584565b50505050905090810190601f1680156105cc5780820380516001836020036101000a031916815260200191505b509250505060405180910390f35b34156105e557600080fd5b6105ed610fd7565b6040518080602001828103825283818151815260200191508051906020019080838360005b8381101561062d578082015181840152602081019050610612565b50505050905090810190601f16801561065a5780820380516001836020036101000a031916815260200191505b509250505060405180910390f35b341561067357600080fd5b61067b611075565b6040518080602001828103825283818151815260200191508051906020019080838360005b838110156106bb5780820151818401526020810190506106a0565b50505050905090810190601f1680156106e85780820380516001836020036101000a031916815260200191505b509250505060405180910390f35b341561070157600080fd5b610709611113565b604051808273ffffffffffffffffffffffffffffffffffffffff1673ffffffffffffffffffffffffffffffffffffffff16815260200191505060405180910390f35b341561075657600080fd5b61075e61113c565b6040518080602001828103825283818151815260200191508051906020019080838360005b8381101561079e578082015181840152602081019050610783565b50505050905090810190601f1680156107cb5780820380516001836020036101000a031916815260200191505b509250505060405180910390f35b34156107e457600080fd5b6107ec6111e4565b6040518080602001828103825283818151815260200191508051906020019080838360005b8381101561082c578082015181840152602081019050610811565b50505050905090810190601f1680156108595780820380516001836020036101000a031916815260200191505b509250505060405180910390f35b341561087257600080fd5b61087a61128c565b6040518080602001828103825283818151815260200191508051906020019080838360005b838110156108ba57808201518184015260208101905061089f565b50505050905090810190601f1680156108e75780820380516001836020036101000a031916815260200191505b509250505060405180910390f35b341561090057600080fd5b610908611334565b6040518080602001828103825283818151815260200191508051906020019080838360005b8381101561094857808201518184015260208101905061092d565b50505050905090810190601f1680156109755780820380516001836020036101000a031916815260200191505b509250505060405180910390f35b341561098e57600080fd5b6109966113dc565b6040518080602001828103825283818151815260200191508051906020019080838360005b838110156109d65780820151818401526020810190506109bb565b50505050905090810190601f168015610a035780820380516001836020036101000a031916815260200191505b509250505060405180910390f35b3415610a1c57600080fd5b610a24611484565b6040518080602001828103825283818151815260200191508051906020019080838360005b83811015610a64578082015181840152602081019050610a49565b50505050905090810190601f168015610a915780820380516001836020036101000a031916815260200191505b509250505060405180910390f35b3415610aaa57600080fd5b610afa600480803590602001908201803590602001908080601f0160208091040260200160405190810160405280939291908181526020018383808284378201915050505050509190505061152c565b005b3415610b0757600080fd5b610b0f611546565b6040518080602001828103825283818151815260200191508051906020019080838360005b83811015610b4f578082015181840152602081019050610b34565b50505050905090810190601f168015610b7c5780820380516001836020036101000a031916815260200191505b509250505060405180910390f35b3415610b9557600080fd5b610be5600480803590602001908201803590602001908080601f016020809104026020016040519081016040528093929190818152602001838380828437820191505050505050919050506115ee565b005b3415610bf257600080fd5b610bfa611608565b6040518080602001828103825283818151815260200191508051906020019080838360005b83811015610c3a578082015181840152602081019050610c1f565b50505050905090810190601f168015610c675780820380516001836020036101000a031916815260200191505b509250505060405180910390f35b8060049080519060200190610c8b9291906116a6565b5050565b8060029080519060200190610ca59291906116a6565b5050565b8060019080519060200190610cbf9291906116a6565b5050565b6000809054906101000a900473ffffffffffffffffffffffffffffffffffffffff1681565b8060069080519060200190610cfe9291906116a6565b5050565b60048054600181600116156101000203166002900480601f016020809104026020016040519081016040528092919081815260200182805460018160011615610100020316600290048015610d985780601f10610d6d57610100808354040283529160200191610d98565b820191906000526020600020905b815481529060010190602001808311610d7b57829003601f168201915b505050505081565b806000806101000a81548173ffffffffffffffffffffffffffffffffffffffff021916908373ffffffffffffffffffffffffffffffffffffffff16021790555050565b60058054600181600116156101000203166002900480601f016020809104026020016040519081016040528092919081815260200182805460018160011615610100020316600290048015610e795780601f10610e4e57610100808354040283529160200191610e79565b820191906000526020600020905b815481529060010190602001808311610e5c57829003601f168201915b505050505081565b60018054600181600116156101000203166002900480601f016020809104026020016040519081016040528092919081815260200182805460018160011615610100020316600290048015610f175780601f10610eec57610100808354040283529160200191610f17565b820191906000526020600020905b815481529060010190602001808311610efa57829003601f168201915b505050505081565b8060079080519060200190610f359291906116a6565b5050565b60028054600181600116156101000203166002900480601f016020809104026020016040519081016040528092919081815260200182805460018160011615610100020316600290048015610fcf5780601f10610fa457610100808354040283529160200191610fcf565b820191906000526020600020905b815481529060010190602001808311610fb257829003601f168201915b505050505081565b60068054600181600116156101000203166002900480601f01602080910402602001604051908101604052809291908181526020018280546001816001161561010002031660029004801561106d5780601f106110425761010080835404028352916020019161106d565b820191906000526020600020905b81548152906001019060200180831161105057829003601f168201915b505050505081565b60038054600181600116156101000203166002900480601f01602080910402602001604051908101604052809291908181526020018280546001816001161561010002031660029004801561110b5780601f106110e05761010080835404028352916020019161110b565b820191906000526020600020905b8154815290600101906020018083116110ee57829003601f168201915b505050505081565b60008060009054906101000a900473ffffffffffffffffffffffffffffffffffffffff16905090565b611144611726565b60048054600181600116156101000203166002900480601f0160208091040260200160405190810160405280929190818152602001828054600181600116156101000203166002900480156111da5780601f106111af576101008083540402835291602001916111da565b820191906000526020600020905b8154815290600101906020018083116111bd57829003601f168201915b5050505050905090565b6111ec611726565b60018054600181600116156101000203166002900480601f0160208091040260200160405190810160405280929190818152602001828054600181600116156101000203166002900480156112825780601f1061125757610100808354040283529160200191611282565b820191906000526020600020905b81548152906001019060200180831161126557829003601f168201915b5050505050905090565b611294611726565b60068054600181600116156101000203166002900480601f01602080910402602001604051908101604052809291908181526020018280546001816001161561010002031660029004801561132a5780601f106112ff5761010080835404028352916020019161132a565b820191906000526020600020905b81548152906001019060200180831161130d57829003601f168201915b5050505050905090565b61133c611726565b60038054600181600116156101000203166002900480601f0160208091040260200160405190810160405280929190818152602001828054600181600116156101000203166002900480156113d25780601f106113a7576101008083540402835291602001916113d2565b820191906000526020600020905b8154815290600101906020018083116113b557829003601f168201915b5050505050905090565b6113e4611726565b60058054600181600116156101000203166002900480601f01602080910402602001604051908101604052809291908181526020018280546001816001161561010002031660029004801561147a5780601f1061144f5761010080835404028352916020019161147a565b820191906000526020600020905b81548152906001019060200180831161145d57829003601f168201915b5050505050905090565b61148c611726565b60028054600181600116156101000203166002900480601f0160208091040260200160405190810160405280929190818152602001828054600181600116156101000203166002900480156115225780601f106114f757610100808354040283529160200191611522565b820191906000526020600020905b81548152906001019060200180831161150557829003601f168201915b5050505050905090565b80600390805190602001906115429291906116a6565b5050565b61154e611726565b60078054600181600116156101000203166002900480601f0160208091040260200160405190810160405280929190818152602001828054600181600116156101000203166002900480156115e45780601f106115b9576101008083540402835291602001916115e4565b820191906000526020600020905b8154815290600101906020018083116115c757829003601f168201915b5050505050905090565b80600590805190602001906116049291906116a6565b5050565b60078054600181600116156101000203166002900480601f01602080910402602001604051908101604052809291908181526020018280546001816001161561010002031660029004801561169e5780601f106116735761010080835404028352916020019161169e565b820191906000526020600020905b81548152906001019060200180831161168157829003601f168201915b505050505081565b828054600181600116156101000203166002900490600052602060002090601f016020900481019282601f106116e757805160ff1916838001178555611715565b82800160010185558215611715579182015b828111156117145782518255916020019190600101906116f9565b5b509050611722919061173a565b5090565b602060405190810160405280600081525090565b61175c91905b80821115611758576000816000905550600101611740565b5090565b905600a165627a7a723058209e756efc26ae529387d829809de062d5ee6122c72a0b2b5667542a1c9944f2a40029",
  "source": "pragma solidity ^0.4.17;\n\n\ncontract CarrierDotInfo {\n\n    // \"dot census\" -- dot licensing and insurance can be another contract\n\n    address public managingContract;\n    string public usDotNumber;\n    string public dbaName;\n    string public legalName;\n    string public streetAddress;\n    string public streetPhone;\n    string public mailingAddress;\n    string public mailingPhone;\n\n    function CarrierDotInfo() public {\n        managingContract = msg.sender;\n    }\n\n    function getManagingContract() public view returns (address) {\n        return managingContract;\n    }\n    function getUsDotNumber() public view returns (string) {\n        return usDotNumber;\n    }\n    function getDbaName() public view returns (string) {\n        return dbaName;\n    }\n    function getLegalName() public view returns (string) {\n        return legalName;\n    }\n    function getStreetAddress() public view returns (string) {\n        return streetAddress;\n    }\n    function getStreetPhone() public view returns (string) {\n        return streetPhone;\n    }\n    function getMailingAddress() public view returns (string) {\n        return mailingAddress;\n    }\n    function getMailingPhone() public view returns (string) {\n        return mailingPhone;\n    }\n\n    function setManagingContract (address _managingContract) public {\n        managingContract = _managingContract;\n    }\n    function setUsDotNumber (string _usDotNumber) public {\n        usDotNumber = _usDotNumber;\n    }\n    function setDbaName (string _dbaName) public {\n        dbaName = _dbaName;\n    }\n    function setLegalName (string _legalName) public {\n        legalName = _legalName;\n    }\n    function setStreetAddress (string _streetAddress) public {\n        streetAddress = _streetAddress;\n    }\n    function setStreetPhone (string _streetPhone) public {\n        streetPhone = _streetPhone;\n    }\n    function setMailingAddress (string _mailingAddress) public {\n        mailingAddress = _mailingAddress;\n    }\n    function setMailingPhone (string _mailingPhone) public {\n        mailingPhone = _mailingPhone;\n    }\n\n\n}",
  "sourcePath": "/Users/tejnakk/Documents/JbHackathon2018/hackathon-blockchain/contracts/CarrierDotInfo.sol",
  "compiler": {
    "name": "solc",
    "version": "0.4.19+commit.c4cbbb05.Emscripten.clang"
  },
  "schemaVersion": "2.0.0",
  "updatedAt": "2018-03-07T20:46:51.945Z"
}