{
  "contractName": "CarrierDotInfo",
  "abi": [
    {
      "constant": true,
      "inputs": [],
      "name": "street_address",
      "outputs": [
        {
          "name": "",
          "type": "bytes32"
        }
      ],
      "payable": false,
      "stateMutability": "view",
      "type": "function"
    },
    {
      "constant": true,
      "inputs": [],
      "name": "legal_name",
      "outputs": [
        {
          "name": "",
          "type": "bytes32"
        }
      ],
      "payable": false,
      "stateMutability": "view",
      "type": "function"
    },
    {
      "constant": true,
      "inputs": [],
      "name": "dba_name",
      "outputs": [
        {
          "name": "",
          "type": "bytes32"
        }
      ],
      "payable": false,
      "stateMutability": "view",
      "type": "function"
    },
    {
      "constant": true,
      "inputs": [],
      "name": "street_phone",
      "outputs": [
        {
          "name": "",
          "type": "bytes32"
        }
      ],
      "payable": false,
      "stateMutability": "view",
      "type": "function"
    },
    {
      "constant": true,
      "inputs": [],
      "name": "mailing_address",
      "outputs": [
        {
          "name": "",
          "type": "bytes32"
        }
      ],
      "payable": false,
      "stateMutability": "view",
      "type": "function"
    },
    {
      "constant": true,
      "inputs": [],
      "name": "mailing_phone",
      "outputs": [
        {
          "name": "",
          "type": "bytes32"
        }
      ],
      "payable": false,
      "stateMutability": "view",
      "type": "function"
    }
  ],
  "bytecode": "0x6060604052341561000f57600080fd5b6101f38061001e6000396000f300606060405260043610610078576000357c0100000000000000000000000000000000000000000000000000000000900463ffffffff16806330ded2d91461007d5780635ef7f0f2146100ae5780636382444f146100df5780638477522614610110578063d5cd5a3f14610141578063ed54a59a14610172575b600080fd5b341561008857600080fd5b6100906101a3565b60405180826000191660001916815260200191505060405180910390f35b34156100b957600080fd5b6100c16101a9565b60405180826000191660001916815260200191505060405180910390f35b34156100ea57600080fd5b6100f26101af565b60405180826000191660001916815260200191505060405180910390f35b341561011b57600080fd5b6101236101b5565b60405180826000191660001916815260200191505060405180910390f35b341561014c57600080fd5b6101546101bb565b60405180826000191660001916815260200191505060405180910390f35b341561017d57600080fd5b6101856101c1565b60405180826000191660001916815260200191505060405180910390f35b60025481565b60015481565b60005481565b60035481565b60045481565b600554815600a165627a7a72305820870be6624e361db1baca1c59d7e4d183c07cd09df79fd7ebb0bf03620a75fc880029",
  "source": "pragma solidity ^0.4.17;\n\n\ncontract CarrierDotInfo {\n\n    // \"dot census\" -- dot licensing and insurance can be another contract\n\n    bytes32 public dba_name;\n    bytes32 public legal_name;\n    bytes32 public street_address;\n    bytes32 public street_phone;\n    bytes32 public mailing_address;\n    bytes32 public mailing_phone;\n\n}",
  "sourcePath": "/Users/tejnakk/Documents/JbHackathon2018/hackathon-blockchain/contracts/CarrierDotInfo.sol",
  "compiler": {
    "name": "solc",
    "version": "0.4.19+commit.c4cbbb05.Emscripten.clang"
  },
  "schemaVersion": "2.0.0",
  "updatedAt": "2018-03-07T19:00:56.313Z"
}