{
  "contractName": "CarrierEquipment",
  "abi": [
    {
      "constant": true,
      "inputs": [],
      "name": "quantity",
      "outputs": [
        {
          "name": "",
          "type": "uint256"
        }
      ],
      "payable": false,
      "stateMutability": "view",
      "type": "function"
    },
    {
      "constant": true,
      "inputs": [],
      "name": "description",
      "outputs": [
        {
          "name": "",
          "type": "string"
        }
      ],
      "payable": false,
      "stateMutability": "view",
      "type": "function"
    },
    {
      "constant": true,
      "inputs": [],
      "name": "identifier",
      "outputs": [
        {
          "name": "",
          "type": "string"
        }
      ],
      "payable": false,
      "stateMutability": "view",
      "type": "function"
    },
    {
      "constant": true,
      "inputs": [],
      "name": "owner",
      "outputs": [
        {
          "name": "",
          "type": "address"
        }
      ],
      "payable": false,
      "stateMutability": "view",
      "type": "function"
    },
    {
      "inputs": [],
      "payable": false,
      "stateMutability": "nonpayable",
      "type": "constructor"
    },
    {
      "constant": false,
      "inputs": [
        {
          "name": "_val",
          "type": "string"
        }
      ],
      "name": "set_identifier",
      "outputs": [],
      "payable": false,
      "stateMutability": "nonpayable",
      "type": "function"
    },
    {
      "constant": false,
      "inputs": [
        {
          "name": "_val",
          "type": "string"
        }
      ],
      "name": "set_description",
      "outputs": [],
      "payable": false,
      "stateMutability": "nonpayable",
      "type": "function"
    },
    {
      "constant": false,
      "inputs": [
        {
          "name": "_val",
          "type": "uint256"
        }
      ],
      "name": "set_quantity",
      "outputs": [],
      "payable": false,
      "stateMutability": "nonpayable",
      "type": "function"
    }
  ],
  "bytecode": "0x6060604052341561000f57600080fd5b336000806101000a81548173ffffffffffffffffffffffffffffffffffffffff021916908373ffffffffffffffffffffffffffffffffffffffff1602179055506106868061005e6000396000f300606060405260043610610083576000357c0100000000000000000000000000000000000000000000000000000000900463ffffffff1680630f9cf1711461008857806317fc45e2146100e55780637284e4161461010e5780637998a1c41461019c5780638da5cb5b1461022a578063992e94fd1461027f578063a36101a9146102a2575b600080fd5b341561009357600080fd5b6100e3600480803590602001908201803590602001908080601f016020809104026020016040519081016040528093929190818152602001838380828437820191505050505050919050506102ff565b005b34156100f057600080fd5b6100f8610374565b6040518082815260200191505060405180910390f35b341561011957600080fd5b61012161037a565b6040518080602001828103825283818151815260200191508051906020019080838360005b83811015610161578082015181840152602081019050610146565b50505050905090810190601f16801561018e5780820380516001836020036101000a031916815260200191505b509250505060405180910390f35b34156101a757600080fd5b6101af610418565b6040518080602001828103825283818151815260200191508051906020019080838360005b838110156101ef5780820151818401526020810190506101d4565b50505050905090810190601f16801561021c5780820380516001836020036101000a031916815260200191505b509250505060405180910390f35b341561023557600080fd5b61023d6104b6565b604051808273ffffffffffffffffffffffffffffffffffffffff1673ffffffffffffffffffffffffffffffffffffffff16815260200191505060405180910390f35b341561028a57600080fd5b6102a060048080359060200190919050506104db565b005b34156102ad57600080fd5b6102fd600480803590602001908201803590602001908080601f01602080910402602001604051908101604052809392919081815260200183838082843782019150505050505091905050610540565b005b6000809054906101000a900473ffffffffffffffffffffffffffffffffffffffff1673ffffffffffffffffffffffffffffffffffffffff163373ffffffffffffffffffffffffffffffffffffffff1614151561035a57600080fd5b80600190805190602001906103709291906105b5565b5050565b60035481565b60028054600181600116156101000203166002900480601f0160208091040260200160405190810160405280929190818152602001828054600181600116156101000203166002900480156104105780601f106103e557610100808354040283529160200191610410565b820191906000526020600020905b8154815290600101906020018083116103f357829003601f168201915b505050505081565b60018054600181600116156101000203166002900480601f0160208091040260200160405190810160405280929190818152602001828054600181600116156101000203166002900480156104ae5780601f10610483576101008083540402835291602001916104ae565b820191906000526020600020905b81548152906001019060200180831161049157829003601f168201915b505050505081565b6000809054906101000a900473ffffffffffffffffffffffffffffffffffffffff1681565b6000809054906101000a900473ffffffffffffffffffffffffffffffffffffffff1673ffffffffffffffffffffffffffffffffffffffff163373ffffffffffffffffffffffffffffffffffffffff1614151561053657600080fd5b8060038190555050565b6000809054906101000a900473ffffffffffffffffffffffffffffffffffffffff1673ffffffffffffffffffffffffffffffffffffffff163373ffffffffffffffffffffffffffffffffffffffff1614151561059b57600080fd5b80600290805190602001906105b19291906105b5565b5050565b828054600181600116156101000203166002900490600052602060002090601f016020900481019282601f106105f657805160ff1916838001178555610624565b82800160010185558215610624579182015b82811115610623578251825591602001919060010190610608565b5b5090506106319190610635565b5090565b61065791905b8082111561065357600081600090555060010161063b565b5090565b905600a165627a7a72305820f2bd9a37045a3cd3b21bf9854bf186dad26e0fa374675db823348e72e26bc2360029",
  "source": "pragma solidity ^0.4.17;\n\ncontract CarrierEquipment {\n\n    address public owner;\n    string public identifier;\n    string public description;\n    uint public quantity;\n\n    function CarrierEquipment() public {\n        owner = msg.sender;\n    }\n\n    function set_identifier(string _val) public {\n        require(msg.sender == owner);\n        identifier = _val;\n    }\n\n    function set_description(string _val) public {\n        require(msg.sender == owner);\n        description = _val;\n    }\n    function set_quantity(uint _val) public {\n        require(msg.sender == owner);\n        quantity = _val;\n    }\n\n}",
  "sourcePath": "/Users/jantimpe/Documents/hackathon/contracts/CarrierEquipment.sol",
  "compiler": {
    "name": "solc",
    "version": "0.4.19+commit.c4cbbb05.Emscripten.clang"
  },
  "schemaVersion": "2.0.0",
  "updatedAt": "2018-03-07T20:53:09.607Z"
}